:100000000C945D000C9485000C9485000C94850084
:100010000C9485000C9485000C9485000C9485004C
:100020000C9485000C9485000C9485000C9485003C
:100030000C9485000C9485000C9485000C9485002C
:100040000C941C030C9485000C94EA020C94C402DA
:100050000C9485000C9485000C9485000C9485000C
:100060000C9485000C9485000000000024002700FB
:100070002A0000000000250028002B0004040404CE
:100080000404040402020202020203030303030342
:10009000010204081020408001020408102001021F
:1000A00004081020000000080002010000030407FB
:1000B0000000000000000000660311241FBECFEF07
:1000C000D8E0DEBFCDBF22E0AEE3B1E001C01D92BB
:1000D000A033B207E1F711E0A0E0B1E0E8ECFAE00C
:1000E00002C005900D92AE33B107D9F710E0CDE50F
:1000F000D0E004C02197FE010E945705CC35D107FE
:10010000C9F70E94A5030C9462050C940000EBE46F
:10011000F1E0A089B18982E08C93A485B5851C9219
:10012000A685B7858FEC8C93108EA489B58986E05F
:100130008C93A289B3898C9180618C93A289B389B5
:100140008C9188608C93A289B3898C9180688C9300
:100150000288F389E02D80818F7D8083089581E47A
:1001600080937C0080917A00806480937A008091F3
:100170007A0086FDFCCF809178002091790090E094
:10018000922B0895CF92DF92EF92FF920F931F93DD
:100190002FB7F894C0904701D0904801E0904901F2
:1001A000F0904A012FBFDC01CB018C0D9D1DAE1DCF
:1001B000BF1D4FB7F894009147011091480120915D
:1001C000490130914A014FBF0C151D052E053F0511
:1001D00028F080179107A207B30758F71F910F91D6
:1001E000FF90EF90DF90CF900895CF92DF92EF9243
:1001F000FF920F931F93CF93DF936C017A018B01D2
:10020000C0E0D0E0CE15DF0581F0D8016D918D0101
:10021000D601ED91FC910190F081E02DC601099588
:10022000892B11F02196EECF7E01C701DF91CF918E
:100230001F910F91FF90EF90DF90CF900895089558
:1002400080E090E00895FC01538D448D252F30E02F
:10025000842F90E0821B930B541710F0CF960895D3
:1002600001970895FC01918D828D981761F0828D20
:10027000DF01A80FB11D5D968C91928D9F5F9F73DA
:10028000928F90E008958FEF9FEF0895FC01918D7C
:10029000828D981731F0828DE80FF11D858D90E0E9
:1002A00008958FEF9FEF0895FC01918D228D892F86
:1002B00090E0805C9F4F821B91098F73992708956E
:1002C0008BE491E00E94540121E0892B09F420E0A5
:1002D000822F0895FC01848DDF01A80FB11DA35A60
:1002E000BF4F2C91848D90E001968F739927848F56
:1002F000A689B7892C93A089B1898C918370806479
:100300008C93938D848D981306C00288F389E02D19
:1003100080818F7D80830895EF92FF920F931F93CA
:10032000CF93DF93EC0181E0888F9B8D8C8D9813A8
:1003300005C0E889F989808185FD26C0F62E0B8DE0
:1003400010E00F5F1F4F0F731127E02E8C8DE81206
:100350000CC00FB607FCFACFE889F989808185FFC8
:10036000F5CFCE010E946A01F1CF8B8DFE01E80F1F
:10037000F11DE35AFF4FF0829FB7F8940B8FEA8983
:10038000FB89808180620AC09FB7F894EE89FF895B
:100390006083E889F98980818370806480839FBF4E
:1003A00081E090E0DF91CF911F910F91FF90EF904E
:1003B0000895CF93DF93EC01888D8823C9F0EA89F3
:1003C000FB89808185FD05C0A889B9898C9186FD4E
:1003D0000FC00FB607FCF5CF808185FFF2CFA8894B
:1003E000B9898C9185FFEDCFCE010E946A01E7CFDC
:1003F000DF91CF91089580E090E0892B29F00E9451
:10040000600181110C94000008953FB7F894809129
:100410003F0190914001A0914101B091420126B568
:10042000A89B05C02F3F19F00196A11DB11D3FBF2C
:10043000BA2FA92F982F8827820F911DA11DB11DBA
:10044000BC01CD0142E0660F771F881F991F4A95B6
:10045000D1F708958F929F92AF92BF92CF92DF9281
:10046000EF92FF926B017C010E9405024B015C013F
:10047000C114D104E104F104F1F00E940502DC0191
:10048000CB0188199909AA09BB09883E9340A105A7
:10049000B10570F321E0C21AD108E108F10888EE35
:1004A000880E83E0981EA11CB11CC114D104E10484
:1004B000F10419F7DDCFFF90EF90DF90CF90BF9060
:1004C000AF909F908F9008950E945D056115710512
:1004D00079F0FB0101900020E9F73197AF01461B4D
:1004E000570BDC01ED91FC910280F381E02D099422
:1004F00080E090E008958F929F92AF92BF92EF922A
:10050000FF920F931F93CF93DF93CDB7DEB7A197E1
:100510000FB6F894DEBF0FBECDBF7C01FA01CB0150
:1005200019A2223008F42AE08E010F5D1F4F822E9F
:10053000912CA12CB12CBF01A50194010E9416059C
:10054000F901CA01015011096A3014F4605D01C05B
:10055000695CD8016C93232B242B252B61F7B80100
:10056000C7010E946602A1960FB6F894DEBF0FBEC7
:10057000CDBFDF91CF911F910F91FF90EF90BF9072
:10058000AF909F908F9008951F920F920FB60F9289
:1005900011242F933F934F935F936F937F938F9388
:1005A0009F93AF93BF93EF93FF938BE491E00E94EF
:1005B0006A01FF91EF91BF91AF919F918F917F91D0
:1005C0006F915F914F913F912F910F900FBE0F90C0
:1005D0001F9018951F920F920FB60F9211242F9310
:1005E0008F939F93EF93FF93E0915B01F0915C01F8
:1005F0008081E0916101F091620182FD12C09081E1
:10060000809164018F5F8F7320916501821751F093
:10061000E0916401F0E0E55BFE4F958F809364010B
:1006200001C08081FF91EF919F918F912F910F9049
:100630000FBE0F901F9018951F920F920FB60F923A
:1006400011242F933F938F939F93AF93BF938091E8
:10065000470190914801A0914901B0914A01309120
:100660003E0123E0230F2D3720F40196A11DB11D7B
:1006700005C026E8230F0296A11DB11D20933E015F
:100680008093470190934801A0934901B0934A0198
:1006900080913F0190914001A0914101B0914201B0
:1006A0000196A11DB11D80933F0190934001A0933D
:1006B0004101B0934201BF91AF919F918F913F91C2
:1006C0002F910F900FBE0F901F901895EBE4F1E063
:1006D0001382128288EE93E0A0E0B0E084839583D9
:1006E000A683B78384E091E09183808385EC90E0DA
:1006F0009587848784EC90E09787868780EC90E0EC
:10070000918B808B81EC90E0938B828B82EC90E0DC
:10071000958B848B86EC90E0978B868B118E128E56
:10072000138E148EE8EEF1E0168217821086118681
:10073000128613861486158616861786108A118AE5
:10074000128A138A148A158A0895789484B582606F
:1007500084BD84B5816084BD85B5826085BD85B565
:10076000816085BD80916E00816080936E001092E3
:10077000810080918100826080938100809181005E
:1007800081608093810080918000816080938000EF
:100790008091B10084608093B1008091B00081604D
:1007A0008093B00080917A00846080937A00809179
:1007B0007A00826080937A0080917A0081608093D1
:1007C0007A0080917A00806880937A001092C1004C
:1007D00010922C0210922D0210922E0210922F02D3
:1007E0001092EA011092EB011092EC011092ED01CF
:1007F00068EB7BE080E090E00E94C2008BE491E037
:1008000090932B0280932A020E9487002FB7F894BE
:100810008091470190914801A0914901B0914A010E
:100820002FBF8093EA019093EB01A093EC01B0936A
:10083000ED0162E171E080912A0290912B020E9409
:1008400066026AE070E080E090E00E94C20081E011
:100850008093FE010E9487004DE950E0FA01649107
:1008600089E890E0FC012491222399F030E0220FE6
:10087000331FF901E859FF4FA591B491F901EE58E2
:10088000FF4F259134913FB7F8942C91262B2C9350
:100890003FBFE1EBF0E02491FA014491FC01949117
:1008A0009923C1F1222339F1233091F038F421301A
:1008B000A9F0223001F584B58F7D12C0273091F068
:1008C0002830A1F02430B9F4809180008F7D03C0DE
:1008D000809180008F77809380000DC084B58F77E2
:1008E00084BD09C08091B0008F7703C08091B000B3
:1008F0008F7D8093B000E92FF0E0EE0FFF1FEE58E0
:10090000FF4FA591B4919FB7F8948C9140954823DF
:100910004C939FBF68EE73E080E090E00E942A0253
:10092000C4EFD1E0C12CD12C76010E94AF0090938E
:10093000460180934501092E000CAA0BBB0BC80E83
:10094000D91EEA1EFB1E65E070E080E090E00E9488
:100950002A02219751F7C701B60124EF31E040E0A8
:1009600050E00E943805309344012093430164E233
:1009700071E08BE491E00E946602C0904301D09048
:1009800044010D2C000CEE08FF08F7FE0EC06DE2CE
:100990008BE491E00E948C0144275527BA014C1941
:1009A0005D096E097F092AE003C02AE0B701A601AC
:1009B0008BE491E00E947B0261E271E08BE491E0C4
:1009C0000E9466020E94AF00909346018093450109
:1009D00060E371E08BE491E00E946602C090450103
:1009E000D09046010D2C000CEE08FF08F7FE0EC05B
:1009F0006DE28BE491E00E948C0144275527BA01F7
:100A00004C195D096E097F092AE003C02AE0B7018D
:100A1000A6018BE491E00E947B0261E271E08BE42D
:100A200091E00E9466020E94FB01CCCFA1E21A2E47
:100A3000AA1BBB1BFD010DC0AA1FBB1FEE1FFF1F82
:100A4000A217B307E407F50720F0A21BB30BE40BD2
:100A5000F50B661F771F881F991F1A9469F7609519
:100A60007095809590959B01AC01BD01CF010895D3
:100A7000052E97FB1EF400940E944F0557FD07D0EA
:100A80000E94160507FC03D04EF40C944F055095B8
:100A90004095309521953F4F4F4F5F4F089590956A
:100AA0008095709561957F4F8F4F9F4F0895EE0F02
:100AB000FF1F0590F491E02D099481E090E0F894F7
:080AC0000C946205F894FFCFCD
:100AC800000000008C01F5002301D9015401320116
:100AD8004601564D4450565F317C315F564D445067
:100AE800560D0A007468726573686F6C64203D0067
:0E0AF80073656E736F7256616C75653D00001C
:107E0000112484B714BE81FFF0D085E080938100F7
:107E100082E08093C00088E18093C10086E0809377
:107E2000C20080E18093C4008EE0C9D0259A86E02C
:107E300020E33CEF91E0309385002093840096BBD3
:107E4000B09BFECF1D9AA8958150A9F7CC24DD24C4
:107E500088248394B5E0AB2EA1E19A2EF3E0BF2EE7
:107E6000A2D0813461F49FD0082FAFD0023811F036
:107E7000013811F484E001C083E08DD089C08234E0
:107E800011F484E103C0853419F485E0A6D080C0E4
:107E9000853579F488D0E82EFF2485D0082F10E0AE
:107EA000102F00270E291F29000F111F8ED06801E7
:107EB0006FC0863521F484E090D080E0DECF843638
:107EC00009F040C070D06FD0082F6DD080E0C81688
:107ED00080E7D80618F4F601B7BEE895C0E0D1E017
:107EE00062D089930C17E1F7F0E0CF16F0E7DF06D8
:107EF00018F0F601B7BEE89568D007B600FCFDCFD4
:107F0000A601A0E0B1E02C9130E011968C91119780
:107F100090E0982F8827822B932B1296FA010C0160
:107F200087BEE89511244E5F5F4FF1E0A038BF0790
:107F300051F7F601A7BEE89507B600FCFDCF97BE46
:107F4000E89526C08437B1F42ED02DD0F82E2BD052
:107F50003CD0F601EF2C8F010F5F1F4F84911BD097
:107F6000EA94F801C1F70894C11CD11CFA94CF0C13
:107F7000D11C0EC0853739F428D08EE10CD085E9AC
:107F80000AD08FE07ACF813511F488E018D01DD067
:107F900080E101D065CF982F8091C00085FFFCCF94
:107FA0009093C60008958091C00087FFFCCF809118
:107FB000C00084FD01C0A8958091C6000895E0E648
:107FC000F0E098E1908380830895EDDF803219F02E
:107FD00088E0F5DFFFCF84E1DECF1F93182FE3DFCA
:107FE0001150E9F7F2DF1F91089580E0E8DFEE27F6
:047FF000FF270994CA
:027FFE00040479
:0400000300007E007B
:00000001FF