:100000000C9469000C9491000C9491000C94910054
:100010000C9491000C9491000C9491000C940B049E
:100020000C9491000C9491000C9491000C9491000C
:100030000C9491000C9491000C9491000C949100FC
:100040000C94C1030C9491000C948F030C946903DD
:100050000C9491000C9491000C9491000C949100DC
:100060000C9491000C949100DF06E206E506E80688
:10007000EB06EE06F106F406F706FA06FD060007A3
:100080000000000800020100000304070000000057
:100090000000000000000000250028002B000000E8
:1000A0000000240027002A000404040404040404BB
:1000B0000202020202020303030303030102040813
:1000C00010204080010204081020010204081020C2
:1000D000DD0511241FBECFEFD8E0DEBFCDBF12E09B
:1000E000A0E0B1E0E6E2F6E102C005900D92AC328C
:1000F000B107D9F723E0ACE2B2E001C01D92A13410
:10010000B207E1F710E0C9E6D0E004C02197FE0194
:100110000E940809C836D107C9F70E941C060C9432
:10012000110B0C940000EAE5F2E0A089B18982E0AD
:100130008C93A485B5851C92A685B7858FEC8C938E
:10014000108EA489B58986E08C93A289B3898C919D
:1001500080618C93A289B3898C9188608C93A289E9
:10016000B3898C9180688C930288F389E02D80811B
:100170008F7D8083089590E0FC01E454FF4F24912B
:10018000FC01E855FF4F8491882399F090E0880F97
:10019000991FFC01E256FF4FA591B491FC01EC566A
:1001A000FF4F859194918FB7F894EC91E22BEC93EB
:1001B0008FBF0895CF92DF92EF92FF920F931F931C
:1001C000CF93DF936C017A018B01C0E0D0E0CE15B4
:1001D000DF0581F0D8016D918D01D601ED91FC9183
:1001E0000190F081E02DC6010995892B11F021962F
:1001F000EECF7E01C701DF91CF911F910F91FF904C
:10020000EF90DF90CF900895089580E090E00895FA
:10021000FC01538D448D252F30E0842F90E0821B0C
:10022000930B541710F0CF96089501970895FC0191
:10023000918D828D981761F0828DDF01A80FB11D1D
:100240005D968C91928D9F5F9F73928F90E0089541
:100250008FEF9FEF0895FC01918D828D981731F0FB
:10026000828DE80FF11D858D90E008958FEF9FEF4F
:100270000895FC01918D228D892F90E0805C9F4F25
:10028000821B91098F73992708958AE592E00E9455
:10029000390121E0892B09F420E0822F0895FC0127
:1002A000848DDF01A80FB11DA35ABF4F2C91848DFF
:1002B00090E001968F739927848FA689B7892C9334
:1002C000A089B1898C91837080648C93938D848D87
:1002D000981306C00288F389E02D80818F7D80838A
:1002E0000895EF92FF920F931F93CF93DF93EC014A
:1002F00081E0888F9B8D8C8D981305C0E889F989E2
:10030000808185FD26C0F62E0B8D10E00F5F1F4FFC
:100310000F731127E02E8C8DE8120CC00FB607FC6E
:10032000FACFE889F989808185FFF5CFCE010E9457
:100330004F01F1CF8B8DFE01E80FF11DE35AFF4F06
:10034000F0829FB7F8940B8FEA89FB8980818062E5
:100350000AC09FB7F894EE89FF896083E889F9891C
:1003600080818370806480839FBF81E090E0DF9113
:10037000CF911F910F91FF90EF900895CF93DF934E
:10038000EC01888D8823C9F0EA89FB89808185FD8D
:1003900005C0A889B9898C9186FD0FC00FB607FCEE
:1003A000F5CF808185FFF2CFA889B9898C9185FF2F
:1003B000EDCFCE010E944F01E7CFDF91CF9108959D
:1003C00080E090E0892B29F00E94450181110C9476
:1003D0000000089590E0FC01E058FF4F2491FC01DB
:1003E000E454FF4F3491FC01E855FF4FE491EE23B4
:1003F00009F43CC0222339F1233091F038F4213044
:10040000A9F0223001F584B58F7D12C0273091F01C
:100410002830A1F02430B9F4809180008F7D03C092
:10042000809180008F77809380000DC084B58F7796
:1004300084BD09C08091B0008F7703C08091B00067
:100440008F7D8093B000F0E0EE0FFF1FEC56FF4F62
:10045000A591B4919FB7F894611104C08C91309527
:10046000382302C0EC913E2B3C939FBF08953FB7C9
:10047000F89480914F0290915002A0915102B09156
:10048000520226B5A89B05C02F3F19F00196A11D69
:10049000B11D3FBFBA2FA92F982F8827820F911D1A
:1004A000A11DB11DBC01CD0142E0660F771F881F61
:1004B000991F4A95D1F708958F929F92AF92BF925C
:1004C000CF92DF92EF92FF926B017C010E94370284
:1004D0004B015C01C114D104E104F104F1F00E946C
:1004E0003702DC01CB0188199909AA09BB09883EAA
:1004F0009340A105B10570F321E0C21AD108E108CB
:10050000F10888EE880E83E0981EA11CB11CC1146E
:10051000D104E104F10419F7DDCFFF90EF90DF90F3
:10052000CF90BF90AF909F908F9008952FB7F89481
:1005300060914B0270914C0280914D0290914E025D
:100540002FBF08958F929F92AF92BF92CF92DF926A
:10055000EF92FF926B017C010E9496024B015C01BD
:10056000C60ED71EE81EF91E0E9496026815790570
:100570008A059B0528F0C616D706E806F906A0F7F7
:10058000FF90EF90DF90CF90BF90AF909F908F90B3
:100590000895009769F0FC0101900020E9F7319778
:1005A000AF01481B590BBC018AE592E00C94DA00BC
:1005B00080E090E008950C94C9028F929F92AF92D0
:1005C000BF920F931F93CF93DF93CDB7DEB7A19761
:1005D0000FB6F894DEBF0FBECDBF19A2423008F4AB
:1005E0004AE08E010F5D1F4F842E912CA12CB12C5F
:1005F000A50194010E945908E62FB901CA010150D2
:100600001109EA3014F4E05D01C0E95CD801EC9313
:10061000232B242B252B61F7C8010E94C902A19628
:100620000FB6F894DEBF0FBECDBFDF91CF911F9103
:100630000F91BF90AF909F908F900895CF92DF92CF
:10064000EF92FF92CF93DF936B017C016DE28AE51D
:1006500092E00E947101EC0166277727CB016C19AB
:100660007D098E099F094AE00E94DD028C0F9D1FC3
:10067000DF91CF91FF90EF90DF90CF900895CF93CF
:10068000DF930E94C902EC0182E391E00E94C9025B
:100690008C0F9D1FDF91CF9108950E94FC0ACF938C
:1006A000DF93EB01682F8AE592E00E947101BE01A1
:1006B000DD0F880B990B97FF03C00E941E0303C038
:1006C0004AE00E94DD0282E391E0DF91CF910C9439
:1006D000C9021F920F920FB60F9211242F933F93CE
:1006E0004F935F936F937F938F939F93AF93BF933A
:1006F000EF93FF938AE592E00E944F01FF91EF9103
:10070000BF91AF919F918F917F916F915F914F9129
:100710003F912F910F900FBE0F901F9018951F9231
:100720000F920FB60F9211242F938F939F93EF93F5
:10073000FF93E0916A02F0916B028081E091700278
:10074000F091710282FD12C09081809173028F5FDF
:100750008F7320917402821751F0E0917302F0E0E0
:10076000E65AFD4F958F8093730201C08081FF91FF
:10077000EF919F918F912F910F900FBE0F901F902F
:1007800018951F920F920FB60F9211242F933F933B
:100790008F939F93AF93BF9380914B0290914C02A4
:1007A000A0914D02B0914E0230914A0223E0230FF6
:1007B0002D3720F40196A11DB11D05C026E8230F99
:1007C0000296A11DB11D20934A0280934B02909383
:1007D0004C02A0934D02B0934E0280914F02909133
:1007E0005002A0915102B09152020196A11DB11D7B
:1007F00080934F0290935002A0935102B093520203
:10080000BF91AF919F918F913F912F910F900FBE0C
:100810000F901F9018951F920F920FB60F921124F0
:100820002F933F934F935F936F937F938F939F93F8
:10083000AF93BF93CF93DF93EF93FF93F89481E44B
:1008400080937C0080917A00806480937A0080910C
:100850007A0086FDFCCF809178002091790090E0AD
:10086000922B909354028093530280914602909170
:100870004702A0914802B09149020296A11DB11D04
:100880008093460290934702A0934802B093490296
:10089000409146025091470260914802709149028E
:1008A0008091420290914302A0914402B09145028E
:1008B000EA01C81BD90B2091530230915402809158
:1008C000070190910801281739071CF5809109014B
:1008D00090910A0165E070E00E94F408CB01880F56
:1008E000991F680F791F6C177D079CF420915302A4
:1008F0003091540280910501909106012817390723
:1009000044F4809153029091540290930601809395
:10091000050120915302309154028091070190917A
:1009200008018217930764F4209153023091540216
:100930008091030190910401821793070CF4AEC0DB
:10094000CB3FD1050CF461C0209153023091540289
:100950008091070190910801821793070CF055C010
:1009600080914102811151C08091090190910A0149
:1009700065E070E00E94F408CB01880F991F680FB2
:10098000791F6C177D070CF492C03FC020E030E067
:1009900080E090E0A9014F5F5F4FFA01EE0FFF1F6B
:1009A000E45DFD4F60817181220F331FF901E45D29
:1009B000FD4F7183608320813181820F931F9A01E3
:1009C0004930510539F72091090130910A013093DE
:1009D0003F0220933E0220913E0230913F02820F5F
:1009E000931F6AE070E00E94E0089B0140E050E045
:1009F00060E67AEE80E090E00E947B083093560239
:100A00002093550281E08093590220915302309146
:100A1000540280910701909108012817390724F4A6
:100A200080914102811192C0C53CD9401CF180E007
:100A300092E09093080180930701909304018093C2
:100A400003019093060180930501809146029091E5
:100A50004702A0914802B0914902809342029093CC
:100A60004302A0934402B093450281E080930201C7
:100A7000109240027894FF91EF91DF91CF91BF9156
:100A8000AF919F918F917F916F915F914F913F9126
:100A90002F910F900FBE0F901F90189580915302C9
:100AA00090915402909304018093030149CF81E017
:100AB0008093410261E088E00E94EA018091460251
:100AC00090914702A0914802B091490240914202A0
:100AD000509143026091440270914502841B950B32
:100AE00090930A01809309018091460290914702F8
:100AF000A0914802B0914902809342029093430230
:100B0000A0934402B093450280914002882399F05B
:100B10001092400280E090E02091090130910A019A
:100B2000FC01EE0FFF1FE45DFD4F31832083019632
:100B30008A30910589F780910201882309F426CF34
:100B40001092020181E08093400294CF60E088E03F
:100B50000E94EA01109241028091030190910401E8
:100B60002091050130910601821B930B90930101A6
:100B70008093000180910001909101012091050175
:100B80003091060197FD019695958795820F931FE9
:100B900090930801809307018091070190910801CB
:100BA00090930401809303018091070190910801C3
:100BB000909306018093050137CFEAE5F2E01382B6
:100BC000128288EE93E0A0E0B0E084839583A68350
:100BD000B78385E191E09183808385EC90E09587F0
:100BE000848784EC90E09787868780EC90E0918BF7
:100BF000808B81EC90E0938B828B82EC90E0958BE4
:100C0000848B86EC90E0978B868B118E128E138EE0
:100C1000148EE7EFF2E01682178210861186128694
:100C200013861486158616861786108A118A128AEC
:100C3000138A148A158A0895789484B5826084BDD5
:100C400084B5816084BD85B5826085BD85B58160D0
:100C500085BD80916E00816080936E00109281004E
:100C60008091810082608093810080918100816009
:100C700080938100809180008160809380008091CA
:100C8000B10084608093B1008091B0008160809356
:100C9000B00080917A00846080937A0080917A001D
:100CA000826080937A0080917A00816080937A00DC
:100CB00080917A00806880937A001092C10010922F
:100CC000390310923A0310923B0310923C031092A6
:100CD000F9021092FA021092FB021092FC0268EBE9
:100CE0007BE080E090E00E94A20268EE73E080E08A
:100CF00090E00E945C020E9493000E949602609322
:100D0000F9027093FA028093FB029093FC0283E253
:100D100091E00E94DB026AE070E080E090E00E94D7
:100D2000A20281E080930D0388E00E94BB008AE06C
:100D30000E94BB000E94930082E08093B00096E086
:100D40009093B1009CE79093B300809370007894E7
:100D500022242A94312C94EFC92EDD24D394E12C43
:100D6000F12C22E3822E912CA12CB12C61E070E0B9
:100D700080E090E00E94360A8C01009731F0FC017F
:100D8000108264E371E00E940A0BA0915302B091BB
:100D900054022BE030E00E940E0920E034E040E0F5
:100DA00050E00E947B08C901330FAA0BBB0B8C30AB
:100DB000910550F5FC01EC5CFF4F0C94080984E3AD
:100DC00091E020C080EF91E01DC08DEE91E01AC04F
:100DD0008AEE91E017C087EE91E014C085E391E0C0
:100DE00011C086E491E00EC089E591E00BC080E778
:100DF00091E008C08AE891E005C08AEA91E002C06B
:100E00008DEC91E00E943F0380915902882311F1FB
:100E1000309258022092570284EF91E00E94DB0248
:100E200081E192E00E94DB026091550270915602CE
:100E3000072E000C880B990B97FF03C00E941E031E
:100E400003C04AE00E94DD0282E391E00E94C902F1
:100E500010925902C0915702D09158022F97CF3F5C
:100E6000D10519F014F0CFEFD0E0D7FF02C0C0E0F9
:100E7000D0E0D0935802C09357028AE00E94BB0092
:100E8000209711F460E004C0CF3FD10529F461E060
:100E90008AE00E94EA0143C0EAE8F0E084918330EE
:100EA000F9F048F48130B9F08230A1F584B5806260
:100EB00084BDC8BD34C08730E9F0883019F1843072
:100EC00049F580918000806280938000D0938B00F0
:100ED000C0938A0024C084B5806884BDC7BD1FC08C
:100EE00080918000806880938000D0938900C093B7
:100EF000880015C08091B00080688093B000C093D6
:100F0000B3000DC08091B00080628093B000C093A8
:100F1000B40005C0C038D1050CF0B9CFB3CF64E13F
:100F200070E080E090E00E945C02C0920503D092E5
:100F30000603E0920703F09208031092090310924F
:100F40000A0310920B0310920C038091FD02909102
:100F5000FE02A091FF02B0910003809301039093E1
:100F60000203A0930303B09304030E9496026093CC
:100F7000FD027093FE028093FF02909300030E9493
:100F800096024090F9025090FA026090FB02709035
:100F9000FC02DC01CB0184199509A609B70982334B
:100FA0009105A105B10550F4A5019401281B390B49
:100FB0004A0B5B0BCA01B9010E94A2020E94960271
:100FC0006093F9027093FA028093FB029093FC0203
:100FD0000E9496022B013C0187E192E00E94DB0215
:100FE0004AE063E070E080E090E00E94DD028EE184
:100FF00092E00E94DB024AE0C301B2010E94DD02DE
:1010000080E292E00E94DB028091FD029091FE025C
:10101000A091FF02B0910003A3019201281B390B9C
:101020004A0B5B0BCA01B9014AE00E94DD0280E273
:1010300092E00E94DB028091FD029091FE02A0915D
:10104000FF02B091000340900103509002036090B2
:10105000030370900403BC01CD016419750986096E
:1010600097094AE00E94DD0282E292E00E94DB02E0
:1010700040E050E0B8018AE592E00E94DA0084E2A4
:1010800092E00E943F0365E070E080E090E00E9403
:10109000A2020E9496026093FD027093FE0280936A
:1010A000FF0290930003C8010E94AD090E94E00175
:1010B0005DCEA1E21A2EAA1BBB1BFD010DC0AA1F0B
:1010C000BB1FEE1FFF1FA217B307E407F50720F0B1
:1010D000A21BB30BE40BF50B661F771F881F991F2C
:1010E0001A9469F760957095809590959B01AC0175
:1010F000BD01CF010895052E97FB1EF400940E94B8
:10110000920857FD07D00E94590807FC03D04EF4FF
:101110000C94920850954095309521953F4F4F4F34
:101120005F4F089590958095709561957F4F8F4F93
:101130009F4F08952F923F924F925F926F927F92AE
:101140008F929F92AF92BF92CF92DF92EF92FF92D7
:101150000F931F93CF93DF93CDB7DEB7CA1BDB0B83
:101160000FB6F894DEBF0FBECDBF09942A88398828
:1011700048885F846E847D848C849B84AA84B9842F
:10118000C884DF80EE80FD800C811B81AA81B9813B
:10119000CE0FD11D0FB6F894DEBF0FBECDBFED014F
:1011A0000895A29FB001B39FC001A39F700D811D40
:1011B0001124911DB29F700D811D1124911D089560
:1011C000AA1BBB1B51E107C0AA1FBB1FA617B7076D
:1011D00010F0A61BB70B881F991F5A95A9F7809589
:1011E0009095BC01CD01089597FB072E16F400944D
:1011F00007D077FD09D00E94E00807FC05D03EF437
:10120000909581959F4F0895709561957F4F0895B2
:10121000EE0FFF1F0590F491E02D09940E94D10874
:10122000B7FF0895821B930B08950F931F93CF93DD
:10123000DF938230910510F482E090E0E0913F036B
:10124000F091400320E030E0A0E0B0E0309719F1E9
:10125000408151810281138148175907C8F08417D2
:10126000950769F4109731F012960C931297139624
:101270001C9327C000933F031093400322C0211505
:10128000310519F04217530718F49A01BD01EF0117
:10129000DF01F801DBCF21153105F9F0281B390BEF
:1012A0002430310580F48A819B816115710521F01C
:1012B000FB019383828304C09093400380933F0398
:1012C000FE01329644C0FE01E20FF31F8193919319
:1012D00022503109398328833AC020913D0330914F
:1012E0003E03232B41F420910D0130910E013093E8
:1012F0003E0320933D0320910B0130910C012115F9
:10130000310541F42DB73EB740910F0150911001C6
:10131000241B350BE0913D03F0913E03E217F307E8
:10132000A0F42E1B3F0B2817390778F0AC014E5F55
:101330005F4F2417350748F04E0F5F1F50933E0351
:1013400040933D038193919302C0E0E0F0E0CF0130
:10135000DF91CF911F910F910895CF93DF93009765
:1013600009F481C0FC01329713821282A0913F03DD
:10137000B0914003109781F420813181820F931F37
:1013800020913D0330913E032817390751F5F09322
:101390003E03E0933D0367C0ED0120E030E0CE174F
:1013A000DF0740F44A815B819E0141155105F1F050
:1013B000EA01F5CFD383C28340815181840F951F09
:1013C000C817D90759F488819981840F951F02960F
:1013D000918380838A819B81938382832115310548
:1013E00029F4F0934003E0933F033DC0E901FB8300
:1013F000EA8349915991C40FD51FEC17FD0761F499
:1014000080819181840F951F0296E90199838883D9
:10141000828193819B838A83E0E0F0E012968D9134
:101420009C911397009719F0FD01DC01F7CF8D9186
:101430009C9111979D012E5F3F4F820F931F20912A
:101440003D0330913E032817390769F4309729F49A
:101450001092400310923F0302C013821282B09395
:101460003E03A0933D03DF91CF910895A0E0B0E04B
:10147000ECE3FAE00C949E08EC01009721F4CB0118
:101480000E941509B4C0FC01E60FF71F9C01225011
:101490003109E217F30708F4A8C0D9010D911C9196
:1014A000119706171707B0F00530110508F49BC017
:1014B000C80104978617970708F495C002501109D0
:1014C000061B170B019311936D937C93CF010E9420
:1014D000AD0989C05B01A01AB10A4C01800E911EB2
:1014E000A0913F03B0914003612C712CE12CF12CB1
:1014F000109709F446C08D919C911197A815B905D4
:10150000B1F56C0142E0C40ED11CCA14DB0478F1C1
:101510004C018A189B08640142E0C40ED11C12964B
:10152000BC9012971396AC91B5E0CB16D10440F065
:10153000B282A38391828082D9016D937C9309C08A
:101540000E5F1F4F800F911FF90191838083EB2D58
:10155000FA2FE114F10431F0D7011396FC93EE93C6
:10156000129741C0F0934003E0933F033CC06816DC
:10157000790608F43C017D0112960D90BC91A02DD6
:10158000B7CF80913D0390913E0388169906E1F410
:1015900066167706C8F480910B0190910C010097B4
:1015A00041F48DB79EB740910F0150911001841BFB
:1015B000950BE817F907C8F4F0933E03E0933D0359
:1015C000F901718360830FC0CB010E9415097C0172
:1015D000009759F0A801BE010E94010BCE010E94A4
:1015E000AD09C70104C0CE0102C080E090E0CDB7D4
:1015F000DEB7EEE00C94BA0881E090E0F8940C9429
:10160000110BFB01DC0102C001900D9241505040D2
:10161000D8F70895FB01DC0101900D920020E1F75D
:061620000895F894FFCFCD
:10162600640001000200020D02580200004103801E
:1016360000000000007101DA000801BE013901173F
:10164600012B01564D4450565F317C315F564D4457
:1016560050560D0A002D2D2D2D2D2D2D2D2D2D2DD8
:101666002D2D2D7C2D002D2D2D2D2D2D2D2D2D2D82
:101676002D2D2D2D7C2D2D2D002D2D2D2D2D2D2D72
:101686002D2D2D2D2D2D2D7C2D2D2D2D2D2D2D0062
:101696002D2D2D2D2D2D2D2D2D2D2D2D2D2D7C2D25
:1016A6002D2D2D2D2D2D2D2D2D002D2D2D2D2D2D91
:1016B6002D2D2D2D2D2D2D2D7C2D2D2D2D2D2D2D05
:1016C6002D2D2D2D2D2D2D2D2D002D2D2D2D2D2D71
:1016D6002D2D2D2D2D2D2D2D7C2D2D2D2D2D2D2DE5
:1016E6002D2D2D2D2D2D2D2D2D2D2D2D002D2D2D51
:1016F6002D2D2D2D2D2D2D2D2D2D2D7C2D2D2D2DC5
:101706002D2D2D2D2D2D2D2D2D2D2D2D2D2D2D2D03
:101716002D2D2D002A2A2A2048656172742D4265D6
:1017260061742048617070656E6564202A2A2A20DB
:101736000042504D3A2000564D4450455F003A3223
:0C1746003A007C005F564D445045000006
:00000001FF
