:100000000C946A000C9492000C9492000C94920050
:100010000C9492000C9492000C9492000C94920018
:100020000C9492000C9492000C9492000C943D0A53
:100030000C9492000C9492000C9492000C949200F8
:100040000C94DD0F0C9492000C94950E0C946F0E92
:100050000C9492000C9492000C9492000C949200D8
:100060000C9413090C949200000000002400270057
:100070002A00010204081020408001020408102018
:10008000010204081020040404040404040402020D
:10009000020202020303030303030000000800023C
:1000A00001000003040700000000000000007C3C89
:1000B0003E5E2B3D3F2F5B5D3B2C2A225C00000007
:1000C0000000250028002B0000000000230026006F
:1000D00029008D1C11241FBECFEFD8E0DEBFCDBF9D
:1000E00026E0AEE6B2E001C01D92AD3EB207E1F7F8
:1000F00012E0A0E0B1E0EEEEFEE302C005900D924A
:10010000AE36B107D9F710E0CAE6D0E004C02197B7
:10011000FE010E942D1EC936D107C9F70E94B016F4
:100120000C94751F0C940000DC015996ED91FC9124
:100130005A973097B9F083899489A589B689428501
:10014000538564857585841B950BA60BB70B8115AC
:1001500020E89207A105B10538F08FEF9FE7A0E0F6
:10016000B0E0089580E090E00895DC0159968D910B
:100170009C915A97009739F0DC01ED91FC91048035
:10018000F581E02D099480E090E00895CF93DF930E
:100190001F92CDB7DEB76983DC01ED91FC9102803F
:1001A000F381E02D41E050E0BE016F5F7F4F099584
:1001B0000F90DF91CF91089585ED8093BC008091E1
:1001C000BC0084FDFCCF1092B302089540918F02D1
:1001D000262F30E0240F311D21323105DCF420912F
:1001E000B3022430C9F4FC0180E090E0861758F493
:1001F00030918F022191DC01A159BD4FA30FB11D98
:100200002C930196F3CF80918F02680F60938F0239
:1002100080E0089581E0089582E0089508958FEFC9
:100220009FEF08958FEF9FEF089580916E0290E009
:100230009195819591090895CF93DF93CB01EA01C0
:10024000642F0E94E600CE01DF91CF910895CF93F5
:10025000DF931F92CDB7DEB7698361E0CE010196CF
:100260000E94E60081E090E00F90DF91CF91089529
:10027000089580E090E008951F93CF93DF93FC01F1
:1002800025812223C1F1162FEC01848187FF28C02C
:10029000668577858089918941E00E945010882386
:1002A00051F1EA8980E2E89FF0011124E051FD4F0D
:1002B000309709F18D81823040F48B899C89AD891A
:1002C000BE89848F958FA68FB78F8F89988DA98DC2
:1002D000BA8D938F828FB58BA48B8C818F778C8313
:1002E000111103C08C818F7E8C83812FDF91CF9180
:1002F0001F910C94271080E0DF91CF911F910895FA
:10030000FC01818D928D009719F061E00C943C0105
:1003100008958F929F92AF92BF92CF92DF92EF9209
:10032000FF920F931F93CF93DF93EC018D81811187
:1003300002C080E078C00B891C892D893E89041792
:10034000150726073707A8F36A017B01823029F4D5
:10035000CA86DB86EC86FD860DC0C114D104E1049B
:10036000F10451F41E821F82188619861A861B8694
:100370001C861D8681E057C08A849B84AC84BD8422
:10038000EB8DFC8D258530E0275F3F4FB501A40143
:100390004150510961097109022E04C07695679593
:1003A000579547950A94D2F7D701C6010197A1093D
:1003B000B10904C0B695A795979587952A95D2F768
:1003C00084179507A607B70720F089288A288B2865
:1003D00071F44F89588D698D7A8D4E835F8368875C
:1003E00079874C015D018E010A5F1F4F16C0841B87
:1003F000950BA60BB70BF5CF4E815F81688579858C
:1004000098018B8D9C8D0E943B1191E0891A910877
:10041000A108B108882309F48CCF81149104A104A8
:10042000B10451F795CFDF91CF911F910F91FF90BC
:10043000EF90DF90CF90BF90AF909F908F900895F6
:100440008F929F92AF92BF92CF92DF92EF92FF92E4
:100450000F931F93CF93DF9300D000D0CDB7DEB7BB
:100460007C0180E2689FF0011124E051FD4F9385EB
:10047000917121F0842F827409F08FC0142FD7015D
:1004800052966C93529740910001509101016091F6
:100490000201709103011E964D935D936D937C93C1
:1004A00051974489558960E070E0BA015527442787
:1004B000828D938DA0E0B0E0482B592B6A2B7B2BCB
:1004C000D70157964D935D936D937C935A9783858F
:1004D000887159F4848D958DA68DB78DF701838B26
:1004E000948BA58BB68B81E012C0803109F055C08A
:1004F00097012D5E3F4FD7015B968D919C915C9744
:100500000E94CB13882309F448C084E0F701858357
:10051000812F8F70D70114968C931497F701168250
:100520001782108611861A961D921D921D921C929A
:100530001D9716FF34C015968C91813071F511FF0F
:100540002CC0F7014389548965897689452B462B50
:10055000472B09F462C040E050E0BA01C7010E9495
:1005600089018823D1F0F7018788908CA18CB28C07
:10057000C38CD48C82E090E0A0E0B0E0F6018083F0
:100580009183A283B3839E012F5F3F4FB501A401E6
:10059000C6010E943B11811104C080E03EC081E091
:1005A0003CC000E010E09801B501A401C6010E9422
:1005B0009A10882391F389809A80AB80BC80D60101
:1005C00057968C91803129F088EF9FEFAFEFBFE015
:1005D00004C088EF9FEFA0E0B0E088169906AA0655
:1005E000BB0688F2D70157961D921D921D921C9250
:1005F0005A97F701138A148A158A168A84818068AB
:10060000848361E0C7010E943C01882331F240E00D
:1006100050E0BA01C7010E9489010F900F900F901E
:100620000F90DF91CF911F910F91FF90EF90DF908E
:10063000CF90BF90AF909F908F900895CF93DF930E
:10064000EC0161E00E943C01882311F01D8281E0F1
:10065000DF91CF9108953F924F925F926F927F9278
:100660008F929F92AF92BF92CF92DF92EF92FF92C2
:100670000F931F93CF93DF93CDB7DEB72C970FB6B1
:10068000F894DEBF0FBECDBF5C01DC015B968D90A0
:100690009C905C971696CD90DD90ED90FC9019970C
:1006A000C114D104E104F10439F0BFEFCB1ADB0A25
:1006B000EB0AFB0A312C07C0F401C080D180E28034
:1006C000F38033243394F40181859285A385B48526
:1006D0009C01AD012F5F3F4F4F4F5F4F29873A87F6
:1006E0004B875C87260137011D821E821F82188678
:1006F000F40181859285A385B4852D813E814F814A
:100700005885281739074A075B0708F063C08985B1
:100710009A85AB85BC858C159D05AE05BF0550F44B
:1007200082E0C82ED12CE12CF12C92E0492E512CE4
:10073000612C712C9E012F5F3F4FB701A601C401B0
:100740000E943B11882309F445C089819A81AB81BD
:10075000BC81892B8A2B8B2B41F0260137019FEF1F
:10076000491A590A690A790A05C0C414D504E6046D
:10077000F70491F02D813E814F8158852F5F3F4FC7
:100780004F4F5F4F2D833E834F8358873FEFC31AF0
:10079000D30AE30AF30AACCF0FEF1FEF2FEF3FE0CE
:1007A000B301A201C4010E949A10882399F0D501D7
:1007B00016964D915D916D917C911997411551055A
:1007C0006105710549F093018201C4010E949A10EC
:1007D000811102C080E02EC0D50116964D925D9227
:1007E0006D927C921997332051F0D301C20101968A
:1007F000A11DB11DF40180839183A283B383F50110
:100800008789908DA18DB28D892B8A2B8B2B69F4D2
:10081000D50157964D925D926D927C925A9714969F
:100820008C911497806814968C93F5018481806272
:10083000848381E02C960FB6F894DEBF0FBECDBF47
:10084000DF91CF911F910F91FF90EF90DF90CF90AC
:10085000BF90AF909F908F907F906F905F904F90E0
:100860003F9008958FB7F8948091DA028FBF089572
:1008700061E0FC0184810E94F00E8091D902811117
:100880001092D90208958EBD00000DB407FEFDCF71
:100890008EB508958FEF0C9443040F931F93CF935D
:1008A000DF93EB010E94D10F8B010E944A048F3F1E
:1008B00049F00E94D10F601B710B6C177D07A8F3E4
:1008C00080E001C081E0DF91CF911F910F910895E9
:1008D000CF93DF93EC018E81882389F08F819885F7
:1008E0009C012F5F3F4F38872F838230924018F44E
:1008F0000E944A04F3CFCE010E9438041E82DF9189
:10090000CF9108958CBD9DBD0895CF93DF93EC01E9
:100910008091D902811109C081E08093D902809130
:10092000D7059091D8050E94820460E08C81DF9108
:10093000CF910C94F00E8F929F92AF92BF92FF9244
:100940000F931F93CF93DF93EC01F62E49015A01C9
:100950000E946804CE010E9485046CE271E0CE0121
:100960000E944D048F2D80640E94430408E110E032
:10097000D501C401002E04C0B695A795979587951B
:100980000A94D2F70E94430408501109083F8FEFE0
:10099000180771F7FF2029F088E0F81204C087E8F3
:1009A00003C085E901C08FEF0E94430410E00E945C
:1009B0004A048A8787FF04C01F3F11F01F5FF7CFEB
:1009C000DF91CF911F910F91FF90BF90AF909F90BB
:1009D0008F900895AF92BF92CF92DF92EF92FF92E5
:1009E0000F931F93CF93DF93EC016901C801820F2E
:1009F000931F8130924008F070C08E81882371F07F
:100A000088819981AA81BB8184179507A607B707BA
:100A100029F48F819885C816D906B0F54883598383
:100A20006A837B838B85833039F089E0440F551FBF
:100A3000661F771F8A95D1F79A01AB0161E1CE015C
:100A40000E949B04882319F083E08D8346C00E9496
:100A5000D10F5B010E944A048A878F3F49F40E94AC
:100A6000D10F6A197B096D327140A0F38FE003C08A
:100A70008E3F31F08DE08D83CE010E9438042DC071
:100A800018861F8281E08E838F8198858C159D0545
:100A900040F40E944A048F819885019698878F833D
:100AA000F3CF6701E00EF11EEC14FD0431F00E945B
:100AB0004A04F60181936F01F7CF8F819885080F63
:100AC000191F18870F838985882319F00115124093
:100AD00048F0CE010E94680405C0CE010E9438048F
:100AE00080E001C081E0DF91CF911F910F91FF90D5
:100AF000EF90DF90CF90BF90AF900895CF92DF92AC
:100B0000EF92FF920F93CF93DF93EC0169014115B0
:100B100051056105710511F482E13EC08B8583307A
:100B200039F089E0440F551F661F771F8A95D1F76A
:100B30009A01AB0168E1CE010E949B04882311F069
:100B400084E02AC08EEF0E94430476018EEFD81A0B
:100B5000F70181917F010E944304CE14DF04C1F7A5
:100B60008FEF0E9443048FEF0E9443040E944A04C7
:100B70008A878F71853031F081E18D83CE010E94AB
:100B800038040BC00023D9F068E572E0CE010E9462
:100B90004D04811107C085E18D83CE010E94380488
:100BA00080E014C020E030E0A9016DE0CE010E9499
:100BB0009B04811109C00E944A04811105C0CE0125
:100BC0000E94380481E002C084E1E6CFDF91CF913A
:100BD0000F91FF90EF90DF90CF9008952F923F926A
:100BE0004F925F926F927F928F929F92AF92BF923D
:100BF000CF92DF92EF92FF920F931F93CF93DF93E9
:100C000000D000D01F92CDB7DEB77C015B01342E3F
:100C10005D83DC0115968C9115978130C9F414968B
:100C20002C9021FE15C022FE1DC0F7014389548976
:100C30006589768982859385A485B585841795070E
:100C4000A607B70779F0C7010E94890181110AC080
:100C500081E090E0D70113969C938E93129780E0E9
:100C600090E03FC1C32CDD8022947FE02722822DBB
:100C700080958170282E81C05B968D919C915C97A8
:100C8000FC0174807A948A019B0169E0369527956E
:100C9000179507956A95D1F770228A011170772010
:100CA00009F477C080E092E0801B910B46018C151F
:100CB0009D0508F44C01D7015B962D913C915C9702
:100CC00016968D919D910D90BC91A02D0297A10932
:100CD000B109F901058404C0880F991FAA1FBB1F21
:100CE0000A94D2F74685578560897189840F951FCC
:100CF000A61FB71F9C01AD01270D311D411D511DC0
:100D000029013A01811432E0930609F089C08091EB
:100D1000000190910101A0910201B09103014816D8
:100D200059066A067B0659F48FEF9FEFDC0180932A
:100D3000000190930101A0930201B0930301022DE1
:100D40009501B301A2018091F0049091F1040E94F9
:100D50007E05882309F47CCF9EEFB91AC818D908FC
:100D6000F70182859385A485B585880D991DA11D00
:100D7000B11D82879387A487B587D7011A964D91B5
:100D80005D916D917C911D97C114D10409F074CFD0
:100D900088C00115110509F085CF16964D915D911A
:100DA0006D917C911997411551056105710559F4B3
:100DB00057968D919D910D90BC91A02D0097A10506
:100DC000B10541F521C09E012F5F3F4F0E943B11AD
:100DD000882309F445CF89819A81AB81BC81F701D1
:100DE000238D348DF9012789203129F048EF5FEFF9
:100DF0006FEF7FE004C048EF5FEF60E070E08417C2
:100E00009507A607B70730F0C7010E942B03811191
:100E100049CF1ECFF70186839783A087B18742CF42
:100E20000115110531F5D7011A964D915D916D911E
:100E30007C911D9753968D919D910D90BC91A02D05
:100E4000481759076A077B07A0F081E00E94271026
:100E5000882309F4FDCE4092000150920101609276
:100E60000201709203018091E20281608093E202AC
:100E700008C041E0C301B2010E945010882309F468
:100E8000E7CED501F801E051FD4F9F01280D391D36
:100E90002E173F0719F08D918193FACFA80CB91C3A
:100EA0005DCFF70183899489A589B6898417950751
:100EB000A607B70738F4438B548B658B768B8481F8
:100EC00080688483F701848183FD03C0832D9D8125
:100ED00008C061E0C7010E943C01882309F4B8CE34
:100EE000F5CF0F900F900F900F900F90DF91CF9153
:100EF0001F910F91FF90EF90DF90CF90BF90AF9038
:100F00009F908F907F906F905F904F903F902F9029
:100F10000895CF93DF93EC01898D9A8D009739F472
:100F200081E090E09B838A8380E090E00BC0FC012D
:100F3000138212820E94EE05E98DFA8D228133819F
:100F4000232B71F7DF91CF910895FC01DB011296FD
:100F50008D919C9113979383828382E391E0918397
:100F6000808314968C911497848315968C91159791
:100F7000858316964D915D916D917C91199746836D
:100F80005783608771871A964D915D916D917C9121
:100F90001D9742875387648775871E964D915D9193
:100FA0006D917C91519746875787608B718B5296D4
:100FB0008C915297828B53964D915D916D917C915E
:100FC0005697438B548B658B768B57964D915D91DD
:100FD0006D917C915A97478B508F618F728F5B9682
:100FE0008D919C915C97948F838F08954F925F921F
:100FF0006F927F92AF92BF92CF92DF92EF92FF9269
:101000000F931F93CF93DF931F92CDB7DEB7FC01F1
:101010002581222309F4C1C0848180FFBEC0838959
:101020009489A589B689428453846484758484151F
:101030009505A605B70509F4B0C06F015201F1E0AE
:10104000BF22D6015B968D919C915C97B301A20162
:1010500039E076956795579547953A95D1F72230BF
:1010600071F4FC01828D938DA48DB58D8A019B0155
:10107000080F191F2A1F3B1FC901B8014AC0DC0114
:1010800014961C9111501423A114B104F9F41111F8
:101090001DC045284628472851F4F6018789908DC0
:1010A000A18DB28D86839783A087B1870FC0D601AB
:1010B00016964D915D916D917C91199796012A5FDD
:1010C0003F4F0E943B11882309F467C0F601238D2E
:1010D000348D86819781A085B1850297A109B109D8
:1010E000AC01BD01F901058404C0440F551F661F02
:1010F000771F0A94D2F786859785A089B189840FD6
:10110000951FA61FB71FBC01CD01610F711D811D69
:10111000911DD60114962C9126FF0DC04090000120
:10112000509001016090020170900301461657062D
:101130006806790699F440E00E945010882369F10E
:10114000F501E051FD4FDE0111969F012F5F3F4FEA
:101150002E173F0799F081918D93FACFFE013196BA
:101160007F0101E010E09501AB01BC018091F0042A
:101170009091F1040E94EA04882379F0F6018285B7
:101180009385A485B5850196A11DB11D828793879E
:10119000A487B587898190E002C08FEF9FEF0F9001
:1011A000DF91CF911F910F91FF90EF90DF90CF9043
:1011B000BF90AF907F906F905F904F900895FC012B
:1011C000818D928D009711F00C94F6078FEF9FEFB1
:1011D00008950F931F93CF93DF93FC01818D928D20
:1011E0000097B9F0EF010E94F6078C010F3F8FEFD7
:1011F000180791F0898D9A8DFC014285538564858D
:10120000758541505109610971090E948901C80120
:1012100005C080E090E002C08FEF9FEFDF91CF919B
:101220001F910F9108951F920F920FB60F921124E4
:101230002F933F934F935F936F937F938F939F93DE
:10124000AF93BF93EF93FF938091B900887F80366F
:1012500009F49CC068F5883209F45BC090F48031D1
:1012600009F454C038F4882309F4F2C0883009F432
:101270004DC0F2C0883109F44CC0803209F45DC021
:10128000EBC0803409F468C048F4803309F455C0D9
:10129000883309F0E1C08093B202D4C0803509F4EC
:1012A0004FC0883509F45DC0883409F0D5C0D2C07C
:1012B000883909F4C3C0A8F4883709F467C038F442
:1012C000883609F463C0803709F460C0C5C0883827
:1012D00009F4B4C0803909F45FC0803809F0BCC09B
:1012E0005BC0803B09F484C038F4803A09F466C0DE
:1012F000883A09F47DC0B0C0803C09F4A3C0883CA2
:1013000009F4A0C0883B09F486C0A6C08091D80229
:1013100010C09091D7028091D602981770F5E09195
:10132000D70281E08E0F8093D702F0E0EA54FD4FA0
:1013300080818093BB0085EC82C08093B2028AC01A
:10134000E091D70281E08E0F8093D7028091BB009D
:10135000F0E0EA54FD4F80839091D7028091D6024D
:101360006AC0E091D70281E08E0F8093D70280910E
:10137000BB00F0E0EA54FD4F80838091B5028111FB
:1013800069C081E08093B40284EA5DC083E0809309
:10139000B3021092B102CFCF8091B102803208F037
:1013A0004DC0E091B10281E08E0F8093B102809137
:1013B000BB00F0E0EF56FD4F8083BDCF85EC8093FE
:1013C000BC001092B3028091B102803230F4E091FF
:1013D000B102F0E0EF56FD4F10826091B10270E073
:1013E00081E992E0E0E0F0E009951092B10234C0AA
:1013F00084E08093B3021092900210928F02E0E09A
:10140000F0E0099580918F02811105C081E0809301
:101410008F0210926F02E091900281E08E0F809314
:101420009002F0E0E159FD4F80818093BB009091E4
:10143000900280918F02981708F47DCF85E8809301
:10144000BC000AC085EC8093BC001092B30204C0BB
:101450001092B2020E94DC00FF91EF91BF91AF9118
:101460009F918F917F916F915F914F913F912F91BC
:101470000F900FBE0F901F9018951F920F920FB6EE
:101480000F9211242F923F924F925F926F927F9210
:101490008F929F92AF92BF92CF92DF92EF92FF9284
:1014A0000F931F932F933F934F935F936F937F936C
:1014B0008F939F93AF93BF93EF93FF93CF93DF935C
:1014C00000D000D0CDB7DEB7F8942091220630913D
:1014D00023063A832983E12CF12CC12CD12CA9813C
:1014E000BA8111968C9190E0C816D9065CF000E0A4
:1014F00010E0212C312CF0E68F2EFAEE9F2EA12C3D
:10150000B12CCBC0E981FA810280F381E02DEE0D90
:10151000FF1DFC83EB8380810E945B0FAB81BC814C
:1015200019969C938E931897BFEFCB1ADB0AECE3C6
:10153000EE0EF11CD4CF1296ED91FC911397E00FB3
:10154000F11FFC83EB8340A851A862A873A8808D8B
:10155000918DA28DB38D480E591E6A1E7B1E40AA26
:1015600051AA62AA73AA84899589A689B78972014A
:10157000E81AF90A868597850C9797878687868566
:10158000978597FD95C086859785873F99400CF094
:1015900092C0AB81BC811E968D919C911F97EB816F
:1015A000FC819787868780859185C0ACD1AC8C15EE
:1015B0009D050CF483C0EB81FC8180859185C81664
:1015C000D9060CF48BC0FBEFEF16F1040CF4C2C08B
:1015D000AB81BC8118968D919C911997C816D9063C
:1015E0000CF0B8C01C968C911C978111B3C01A9650
:1015F0008D919C911B9765E070E00E94FA1DCB01D4
:10160000880F991F680F791F6E157F050CF0A2C017
:10161000E1E0AB81BC811C96EC931C97FD018489B1
:101620009589A689B7899201281B390B33872287B0
:10163000448A558A668A778A83AD882391F0EB8144
:10164000FC8113AE7C968B819C81C096AB81BC8162
:101650001A962D913C911B97219331938E179F07DA
:10166000A9F7EB81FC8182AD882309F440C012AE5A
:1016700021E023AFAB81BC8112968D919C91139791
:1016800097FFAAC0EB81FC81E480F580F7FEAEC035
:10169000BFEF2B1A3B0A045C1F4FA981BA81119638
:1016A0008C91119790E0281639060CF444CF09C1AB
:1016B00080E090E074CF86EF99E071CF82859385CA
:1016C00065E070E00E94FA1DCB01880F991F680F3A
:1016D000791F6E157F050CF420C16DCF20853185F3
:1016E00084A995A9821793070CF430C16CCFEB81C4
:1016F000FC817C964B815C81425D5F4F80E090E095
:101700002281338121933193820F931F4E175F07FC
:10171000B9F7AB81BC811A962D913C911B979F968E
:101720003C932E939E97820F931F6AE070E00E9475
:10173000E61D9B0140E050E0C501B4010E940E1E71
:10174000EB81FC813783268321E0258786EF99E0B2
:1017500097878687AB81BC8118968D919C9119974C
:101760008C159D0524F41C968C918111F6C0B5EC66
:10177000EB16B9E0FB060CF47DCFEB81FC81808990
:10178000918991AF80AF20E032E035AB24AB37AB2D
:1017900026ABDF01448A558A668A778AE1E0DA96C9
:1017A000EC93DA97DB961C92DB971D961C921D97A3
:1017B00017961C921E92169728E532E01B963C93D2
:1017C0002E931A971C961C921C9784E690E05396D1
:1017D0009C938E9352974ECF1C962C91222311F0FE
:1017E00061E001C060E00E94F00E4CCF86859785D5
:1017F0006AE070E00E94FA1D7C836B8361E08E2DAD
:101800000E941F0F2B813C81232B09F453C08B8135
:101810009C818F3F910509F44FC0F701FF27E656E1
:10182000FF4FE491E33019F150F4E130D1F0E230B0
:10183000E1F584B5806284BDAB81A8BD29CFE730D6
:1018400011F1E83049F1E43081F580918000806247
:10185000809380002B813C8130938B0020938A0001
:1018600017CF84B5806884BD9B8197BD11CF8091CF
:101870008000806880938000EB81FC81F093890078
:10188000E093880005CF8091B00080688093B0001D
:101890003B813093B300FCCE8091B0008062809396
:1018A000B0008B818093B400F3CEAB81BC81A038B3
:1018B000B10514F460E001C061E08E2D0E94F00ECD
:1018C000E7CE81E0E981FA81808778940F900F90CC
:1018D0000F900F90DF91CF91FF91EF91BF91AF915A
:1018E0009F918F917F916F915F914F913F912F9138
:1018F0001F910F91FF90EF90DF90CF90BF90AF902E
:101900009F908F907F906F905F904F903F902F901F
:101910000F900FBE0F901F901895AB81BC81189649
:101920002D913C911997D6968D919C91D797281718
:1019300039070CF040CEAB81BC8118968D919C91FB
:101940001997D7969C938E93D69735CEEB81FC81D1
:101950008085918595AB84AB36CEEB81FC81148676
:1019600026A937A984A995A9821B930B938B828BF7
:101970008289938997FD019695958795820F931F8C
:10198000AB81BC81D9969C938E93D897D5969C9326
:101990008E93D497D7969C938E93D697E8CEFC01DE
:1019A000538D448D252F30E0842F90E0821B930BC4
:1019B000541710F0CF96089501970895FC01918D6A
:1019C000828D981761F0828DDF01A80FB11D5D96A1
:1019D0008C91928D9F5F9F73928F90E008958FEF0F
:1019E0009FEF0895FC01918D828D981731F0828DC3
:1019F000E80FF11D858D90E008958FEF9FEF08951A
:101A0000FC01918D228D892F90E0805C9F4F821B7D
:101A100091098F739927089582EF94E00E94000D39
:101A200021E0892B09F420E0822F0895FC01848DA8
:101A3000DF01A80FB11DA35ABF4F2C91848D90E0F8
:101A400001968F739927848FA689B7892C93A089D3
:101A5000B1898C91837080648C93938D848D98135D
:101A600006C00288F389E02D80818F7D80830895F0
:101A7000EF92FF920F931F93CF93DF93EC0181E0DE
:101A8000888F9B8D8C8D981305C0E889F98980819A
:101A900085FD26C0F62E0B8D10E00F5F1F4F0F73D4
:101AA0001127E02E8C8DE8120CC00FB607FCFACF80
:101AB000E889F989808185FFF5CFCE010E94160D56
:101AC000F1CF8B8DFE01E80FF11DE35AFF4FF0823D
:101AD0009FB7F8940B8FEA89FB89808180620AC0E6
:101AE0009FB7F894EE89FF896083E889F98980813E
:101AF0008370806480839FBF81E090E0DF91CF910D
:101B00001F910F91FF90EF900895CF93DF93EC0119
:101B1000888D8823C9F0EA89FB89808185FD05C00D
:101B2000A889B9898C9186FD0FC00FB607FCF5CF47
:101B3000808185FFF2CFA889B9898C9185FFEDCF8F
:101B4000CE010E94160DE7CFDF91CF91089580E07E
:101B500090E0892B29F00E940C0D81110C9400005B
:101B60000895833081F028F4813099F08230A1F01B
:101B700008958730A9F08830B9F08430D1F480918D
:101B800080008F7D03C0809180008F7780938000DC
:101B9000089584B58F7702C084B58F7D84BD089584
:101BA0008091B0008F7703C08091B0008F7D8093CB
:101BB000B00008950E94541F0F934091E30250918A
:101BC000E4026091E5027091E6024115510561055C
:101BD000710599F0082F20EF32E08091F004909188
:101BE000F1040E947E05882349F01092E3021092CE
:101BF000E4021092E5021092E60281E00F9108954E
:101C0000FF920F931F93CF93DF93EC018D8181306F
:101C100011F58C8181FF1FC082FF0DC04B895C894B
:101C20006D897E898A859B85AC85BD8584179507DE
:101C3000A607B70799F40091F0041091F104C801C8
:101C40000E9485040E944A04F82EC8010E943804AC
:101C50008FEFF81649F080E090E02AC0CE010E9494
:101C600089018111E8CFF7CF8C8185FF08C060E042
:101C7000CE010E943C018C818F7D8C83ECCF409102
:101C8000E3025091E4026091E5027091E602452B77
:101C9000462B472B21F080E00E94DC0DDCCF8061D9
:101CA0008C832A853B85317080E092E0821B930B08
:101CB000DF91CF911F910F91FF900895CF93DF9304
:101CC0001F92CDB7DEB7698341E050E0BE016F5F80
:101CD0007F4F0E94EE050F90DF91CF9108951F92E4
:101CE0000F920FB60F9211242F933F934F935F9350
:101CF0006F937F938F939F93AF93BF93EF93FF93D4
:101D000082EF94E00E94160DFF91EF91BF91AF9189
:101D10009F918F917F916F915F914F913F912F9103
:101D20000F900FBE0F901F9018951F920F920FB635
:101D30000F9211242F938F939F93EF93FF93E09132
:101D40000205F09103058081E0910805F0910905F5
:101D500082FD12C0908180910B058F5F8F7320915F
:101D60000C05821751F0E0910B05F0E0EE50FB4FAF
:101D7000958F80930B0501C08081FF91EF919F911A
:101D80008F912F910F900FBE0F901F901895CF93AA
:101D9000DF93282F30E0F901E656FF4F8491F901D7
:101DA000EE58FF4FD491F901EA57FF4FC491CC236D
:101DB00091F081110E94B10DEC2FF0E0EE0FFF1FAA
:101DC000E853FF4FA591B491EC91ED2381E090E0B1
:101DD00021F480E002C080E090E0DF91CF9108958F
:101DE0001F93CF93DF93282F30E0F901E656FF4F82
:101DF0008491F901EE58FF4FD491F901EA57FF4F52
:101E0000C491CC23C1F0162F81110E94B10DEC2F8B
:101E1000F0E0EE0FFF1FE254FF4FA591B4919FB782
:101E2000F894111104C08C91D095D82302C0EC9184
:101E3000DE2BDC939FBFDF91CF911F910895CF934D
:101E4000DF9390E0FC01EE58FF4F2491FC01EA572C
:101E5000FF4F8491882361F190E0880F991FFC0166
:101E6000E859FF4FC591D491FC01E254FF4FA59171
:101E7000B491611109C09FB7F8948881209582239D
:101E80008883EC912E230BC0623061F49FB7F894E5
:101E90008881322F309583238883EC912E2B2C93CD
:101EA0009FBF06C08FB7F894E8812E2B28838FBF81
:101EB000DF91CF9108958E3008F08E508770806446
:101EC00080937C0080917A00806480937A00809176
:101ED0007A0086FDFCCF809178002091790090E017
:101EE000922B08953FB7F8948091EC029091ED0207
:101EF000A091EE02B091EF0226B5A89B05C02F3F3E
:101F000019F00196A11DB11D3FBFBA2FA92F982F1F
:101F10008827820F911DA11DB11DBC01CD0142E09A
:101F2000660F771F881F991F4A95D1F708958F92E2
:101F30009F92AF92BF92CF92DF92EF92FF926B018E
:101F40007C010E94720F4B015C01C114D104E104B9
:101F5000F104F1F00E94720FDC01CB01881999099C
:101F6000AA09BB09883E9340A105B10570F321E0A1
:101F7000C21AD108E108F10888EE880E83E0981EA5
:101F8000A11CB11CC114D104E104F10419F7DDCF87
:101F9000FF90EF90DF90CF90BF90AF909F908F9089
:101FA00008952FB7F8946091E8027091E90280914A
:101FB000EA029091EB022FBF08951F920F920FB685
:101FC0000F9211242F933F938F939F93AF93BF93BF
:101FD0008091E8029091E902A091EA02B091EB02AF
:101FE0003091E70223E0230F2D3720F40196A11D45
:101FF000B11D05C026E8230F0296A11DB11D209337
:10200000E7028093E8029093E902A093EA02B0937A
:10201000EB028091EC029091ED02A091EE02B09162
:10202000EF020196A11DB11D8093EC029093ED0289
:10203000A093EE02B093EF02BF91AF919F918F9169
:102040003F912F910F900FBE0F901F9018950F93F7
:10205000CF939091E2029923F9F0C82F40910001AB
:10206000509101016091020170910301082F20EF4E
:1020700032E08091F0049091F1040E947E0581117C
:1020800002C080E00AC0CC2339F08C2F0E94DC0D06
:102090008823B9F31092E20281E0CF910F91089565
:1020A0008F929F92AF92BF92EF92FF920F931F93E6
:1020B000CF934B015C01C42F8091000190910101ED
:1020C000A0910201B091030188159905AA05BB05ED
:1020D00009F181E00E942710811102C080E020C038
:1020E00080EFE82E82E0F82E00E012E020E030E001
:1020F000B501A4018091F0049091F1040E94EA04DA
:10210000882361F38092000190920101A092020164
:10211000B09203018091E202C82BC093E20281E0F9
:10212000CF911F910F91FF90EF90BF90AF909F9034
:102130008F9008954F925F926F927F928F929F92AD
:10214000AF92BF92CF92DF92EF92FF920F931F93C5
:10215000CF93DF93EC01423051056105710510F416
:1021600080E078C089859A85AB85BC850196A11DE4
:10217000B11D84179507A607B70790F3CB88DC88B5
:10218000ED88FE888F89803129F4BB27A72F962FF1
:10219000852F09C0DB01CA01E7E0B695A7959795A1
:1021A0008795EA95D1F7480159012A013B01C80EEC
:1021B000D91EEA1EFB1E8091000190910101A091A1
:1021C0000201B0910301C816D906EA06FB0681F4A4
:1021D0008F898031A9F4B301A2015527662777279B
:1021E000440F551FFA01E051FD4F9182808219C0C2
:1021F00040E0C701B6010E9450108111E9CFB0CF75
:10220000B301A2014F77552766277727440F551F43
:10221000440F551FFA01E051FD4F80829182A28246
:10222000B3828091E20281608093E2028A898230E7
:1022300080F08D819E81AF81B885C80ED91EEA1EBF
:10224000FB1EC092E302D092E402E092E502F0921B
:10225000E60281E0DF91CF911F910F91FF90EF9007
:10226000DF90CF90BF90AF909F908F907F906F90B6
:102270005F904F9008958F929F92AF92BF92CF92AE
:10228000DF92EF92FF920F931F93CF93DF93FC01A6
:1022900081859285A385B4850196A11DB11D841702
:1022A0009507A607B70710F480E05BC08388948881
:1022B000A588B6888789803129F4BB27A72F962F58
:1022C000852F09C0DB01CA01C7E0B695A795979590
:1022D0008795CA95D1F7E9016A017B018F01BC019D
:1022E000CD01680D791D8A1D9B1D80900001909085
:1022F0000101A0900201B0900301681579058A05DB
:102300009B0591F4F80187898031A1F4DD24EE2446
:10231000FF24C601880F991FFC01E051FD4F808109
:102320009181A0E0B0E018C040E00E9450108111FF
:10233000E9CFBACFE894C7F8DD24EE24FF24C60124
:10234000880F991F880F991FFC01E051FD4F808174
:102350009181A281B381BF7088839983AA83BB8353
:1023600081E0DF91CF911F910F91FF90EF90DF906F
:10237000CF90BF90AF909F908F9008952F923F92F3
:102380004F925F926F927F928F929F92AF92BF9285
:10239000CF92DF92EF92FF920F931F93CF93DF9331
:1023A000CDB7DEB72B970FB6F894DEBF0FBECDBF0B
:1023B0007C01FE013196CE010C966F0130E2319323
:1023C000E817F907E1F7DA0130E087E09D919923FA
:1023D00031F19E3231F48A3009F46DC138E08AE07F
:1023E000F5CFEEEAF0E04491442321F031969413C6
:1023F000FACF61C1831708F45EC14FED490F4E3526
:1024000008F059C141E0430FF601E30FF11D3FE928
:10241000390F3A3108F490529083342FD7CF898105
:10242000803209F448C1322E8B01DB015B968D911D
:102430009C915C97F701948F838F16961D921D9245
:102440001D921C921997FB0112861386148615861D
:10245000B12CF80182859385A485B585438954897B
:102460006589768984179507A607B70708F05BC0CA
:1024700025E0B695A795979587952A95D1F7F82FDA
:10248000FF70AF2ED80115968C91823008F413C1DD
:10249000C8010E94F60797FD0EC1F8018285938559
:1024A000A485B5854F96A11DB11D82879387A4870A
:1024B000B587F0E2AF9EB001112460517D4F6115E8
:1024C000710509F4F8C0DB018C91882319F0853E71
:1024D000C1F4F3C0B1100EC0F701A28A80910001CF
:1024E00090910101A0910201B09103018687978725
:1024F000A08BB18BDB018C91882399F0BB24B39422
:10250000A8CF4BE050E0C6010E94591F892B09F06B
:10251000A0CF832D8073803309F4CDC0432D6A2D65
:10252000C6C0BB24B394832D8271823109F0C3C02D
:10253000BB20C1F0F701668577858089918941E0EC
:102540000E945010882309F4B6C0D70152968C918E
:10255000B0E28B9FC001112480519D4F009709F07C
:1025600079C0A9C0F8018581823009F4A4C0C801EE
:102570000E942B03882309F49EC0D8015B96ED913D
:10258000FC915C9716968D909D90AD90BC9019979C
:10259000B2E08B1A9108A108B108058404C0880C28
:1025A000991CAA1CBB1C0A94D2F786859785A08922
:1025B000B189880E991EAA1EBB1E2480E1E08E1AE6
:1025C0009108A108B108222011F124013501420C23
:1025D000511C611C711C81E00E942710882309F4A2
:1025E0006AC0E0EFF2E0119224E0E03FF207D9F791
:1025F0004092000150920101609202017092030129
:102600008091E20281608093E2022A94DCCFD801BB
:102610005B96ED91FC915C9780E092E0A0E0B0E0E9
:10262000058404C0880F991FAA1FBB1F0A94D2F704
:10263000F8014389548965897689840F951FA61FFF
:10264000B71F838B948BA58BB68BD70152961C92A8
:1026500080EF92E020E2FC0111922A95E9F72BE04D
:10266000F601DC0101900D922A95E1F721E238E2B2
:10267000DC0151963C932E93509740E058E01F9612
:102680005C934E931E9753963C932E935297599674
:102690003C932E93589757965C934E93569781E0B0
:1026A0000E942710882339F0432DF7016289C70162
:1026B0000E94200205C080E003C0B1101FCF0CCFE4
:1026C0002B960FB6F894DEBF0FBECDBFDF91CF9132
:1026D0001F910F91FF90EF90DF90CF90BF90AF9040
:1026E0009F908F907F906F905F904F903F902F9032
:1026F0000895CF92DF92EF92FF920F931F93CF93A3
:10270000DF936C017A018B01C0E0D0E0CE15DF05CC
:1027100081F0D8016D918D01D601ED91FC91019070
:10272000F081E02DC6010995892B11F02196EECF9D
:102730007E01C701DF91CF911F910F91FF90EF9024
:10274000DF90CF900895E2EFF4E0A089B18982E0B4
:102750008C93A485B5851C92A685B7858FEC8C9348
:10276000108EA489B58986E08C93A289B3898C9157
:1027700080618C93A289B3898C9188608C93A289A3
:10278000B3898C9180688C930288F389E02D8081D5
:102790008F7D808308954F925F926F927F92AF9268
:1027A000BF92CF92DF92EF92FF920F931F93CF933E
:1027B000DF9300D000D0CDB7DEB78C0149835A83B8
:1027C0006B837C835901C12CD12C7601412C82E092
:1027D000582E612C712C49815A816B817C819E011C
:1027E0002F5F3F4FC8010E943B11882351F1D30155
:1027F000C201F801058404C0880F991FAA1FBB1FDE
:102800000A94D2F7C80ED91EEA1EFB1E49815A81CE
:102810006B817C818789803129F088EF9FEFAFEF52
:10282000BFE004C088EF9FEFA0E0B0E04817590771
:102830006A077B0780F2F501C082D182E282F382CF
:1028400081E00F900F900F900F90DF91CF911F912B
:102850000F91FF90EF90DF90CF90BF90AF907F905F
:102860006F905F904F900895CF93DF93FC01258187
:10287000222311F080E049C0EC018091FC058031F9
:10288000C1F482E08583178A108E118E128E80919A
:10289000FD059091FE05A0E0B0E025E0880F991FAE
:1028A000AA1FBB1F2A95D1F7838B948BA58BB68B60
:1028B00019C08032F9F683E085834091FF0550917D
:1028C00000066091010670910206478B508F618F60
:1028D000728F9F012D5E3F4F85EE95E00E94CB13D6
:1028E000882341F285EE95E09C8F8B8F81E08C836D
:1028F0001E821F82188619861A861B861C861D86D4
:102900001E861F86188A198A1A8ADF91CF91089528
:102910008F929F92AF92BF92CF92DF92EF92FF92EF
:10292000CF93DF93C82F89ED95E09093F1048093C6
:10293000F004CC2369F1C53010F080E00CC140E018
:1029400060E070E0CB010E9450108823B1F320E1D9
:10295000C29FC001112480529D4FFC01E254FE4FE2
:1029600020812F7751F73C9640815181628173819C
:10297000443651056105710500F33497C080D1805C
:10298000E280F380C114D104E104F10421F4D5CF35
:10299000C12CD12C760140E0C701B6010E94501035
:1029A000882359F28091FB029091FC02811592409C
:1029B00021F6A0910003AA2309F4BFCF6091FE0283
:1029C0007091FF026115710509F4B7CF2091FD02E6
:1029D000222309F4B2CFA093F7052093E90580E004
:1029E00030E041E050E0C82FFA01082E02C0EE0F9F
:1029F000FF1F0A94E2F72E173F0739F08F5FC830A8
:102A000091F789E08093F20598CF8093F2052091A9
:102A10000603309107032115310519F040E050E01D
:102A200008C0209114033091150340911603509172
:102A300017032093EA053093EB054093EC05509380
:102A4000ED0546015701860E971EA11CB11C809210
:102A5000F8059092F905A092FA05B092FB05E09175
:102A60000103F0910203F093FE05E093FD05B0E051
:102A70000E94CC1D860E971EA81EB91E8092FF05CF
:102A800090920006A0920106B092020685E0EE0F39
:102A9000FF1F8A95E1F7E150FE4FEF2FFF27E695E4
:102AA0008E0E9F1EA11CB11C8092F3059092F4051E
:102AB000A092F505B092F60520910303309104032E
:102AC0002115310521F0A90160E070E008C04091B6
:102AD0001003509111036091120370911303D701F9
:102AE000C60188199909AA09BB09840F951FA61F59
:102AF000B71F04C0B695A79597958795CA95D2F745
:102B00008093EE059093EF05A093F005B093F10547
:102B1000853F2FE09207A105B10510F48CE018C0A5
:102B2000853F9F4FA105B10510F480E111C0809150
:102B30001C0390911D03A0911E03B0911F0380936D
:102B4000FF0590930006A0930106B093020680E271
:102B50008093FC0581E0DF91CF91FF90EF90DF90B3
:102B6000CF90BF90AF909F908F900895EF92FF927B
:102B70000F931F93CF93DF93EC017B018A011B829C
:102B80001A8288EE93E0A0E0B0E08C839D83AE8350
:102B9000BF838EE091E0998388838DE190E00E946D
:102BA000331E9A8F898F009779F02DE1F701DC01B0
:102BB00001900D922A95E1F74CE050E0B801CE016A
:102BC0000C960E94661F188EDF91CF911F910F9176
:102BD000FF90EF9008956115710579F0FB01019068
:102BE0000020E9F73197AF01461B570BDC01ED914F
:102BF000FC910280F381E02D099480E090E008953B
:102C00008F929F92AF92BF92EF92FF920F931F937A
:102C1000CF93DF93CDB7DEB7A1970FB6F894DEBFA1
:102C20000FBECDBF7C01FA01CB0119A2223008F4FE
:102C30002AE08E010F5D1F4F822E912CA12CB12C0A
:102C4000BF01A50194010E94AA1DF901CA0101500A
:102C500011096A3014F4605D01C0695CD8016C939D
:102C6000232B242B252B61F7B801C7010E94EB15FC
:102C7000A1960FB6F894DEBF0FBECDBFDF91CF9106
:102C80001F910F91FF90EF90BF90AF909F908F900A
:102C90000895CF92DF92EF92FF920F931F93CF93FD
:102CA000DF93EC016A017B01E881F9810190F081F9
:102CB000E02D6DE209958C0144275527BA014C1986
:102CC0005D096E097F092AE0CE010E940016800F7F
:102CD000911FDF91CF911F910F91FF90EF90DF90A7
:102CE000CF9008950F931F93CF93DF93EC01AB0127
:102CF000770F660B770B77FF03C00E94491603C05E
:102D00002AE00E9400168C0169E771E0CE010E9462
:102D1000EB15800F911FDF91CF911F910F910895B7
:102D2000AB01770F660B770B77FD0C9449162AE001
:102D30000C9400160F931F93CF93DF93EC010E9426
:102D4000EB158C0169E771E0CE010E94EB15800F55
:102D5000911FDF91CF911F910F9108950C94EB1566
:102D6000CF93DF93CDB7DEB7C257D1090FB6F89432
:102D7000DEBF0FBECDBF789484B5826084BD84B5BC
:102D8000816084BD85B5826085BD85B5816085BD66
:102D900080916E00816080936E001092810080911E
:102DA00081008260809381008091810081608093A6
:102DB0008100809180008160809380008091B100CB
:102DC00084608093B1008091B00081608093B000F6
:102DD00080917A00846080937A0080917A0082608A
:102DE00080937A0080917A00816080937A0080914C
:102DF0007A00806880937A001092C1001092D30507
:102E00001092D4051092D5051092D6051092910516
:102E10001092920510929305109294050E94D10F82
:102E20006B017C014B015C0128EB820E2BE0921EB2
:102E3000A11CB11C0E94D10F6C157D058E059F054C
:102E400028F086169706A806B906A0F782EF94E048
:102E50009093D2058093D1050E94A3136AE671E096
:102E60008091D1059091D2050E94AE160E94D10F9B
:102E70006B017C014B015C018AE0880E911CA11C56
:102E8000B11C0E94D10F6C157D058E059F0528F0A1
:102E900086169706A806B906A0F781E08093A505D7
:102EA0000E94A3136CE771E082EF94E00E94AE16DB
:102EB00080910806882321F083E096E00E941E039B
:102EC0001092E4051092E2051092DF051092DE05E3
:102ED00084E08093DD050E94D10F8B0161E0809139
:102EE000DD050E941F0F61E08091DD050E94F00E5C
:102EF000FFB6F8948091DB02811127C0E0E9F0E091
:102F00008491ECE7F0E09491E82FF0E0EE0FFF1FE2
:102F1000E859FF4FA591B491EC91E92321F461E0C8
:102F20008AE00E94F00E61E08AE00E941F0F8CB5DB
:102F300080618CBD8CB580648CBD61E08DE00E94A9
:102F40001F0F61E08BE00E941F0F8091DB028F5FFB
:102F50008093DB02FFBE82E58093D7051092D805EF
:102F60008091D7059091D8050E9482045AE0F52EF1
:102F70008FEF0E944304FA94F110FACF89ED95E0A7
:102F80000E94850420E030E0A90160E089ED95E031
:102F90000E949B04F82E8093E30591E0891749F085
:102FA0000E94D10F601B710B613D774058F381E0A7
:102FB00056C02AEA31E040E050E068E089ED95E053
:102FC0000E949B0482FF03C0F092E40510C044E01D
:102FD000F42E0E944A048093E305FA94F110F9CF8D
:102FE0008A3A11F082E03BC082E08093E405809150
:102FF000E405823021F0C12CD12C760105C0C12C12
:10300000D12CE12C30E4F32E20E030E0A90167E37D
:1030100089ED95E00E949B04A701960169E289ED84
:1030200095E00E949B048093E305882349F00E9469
:10303000D10F601B710B613D774030F388E00FC00A
:103040008091E405823001F520E030E0A9016AE3D7
:1030500089ED95E00E949B04882341F086E08093EF
:10306000DE0589ED95E00E94380428C00E944A04DC
:10307000807C803C19F483E08093E4050E944A043C
:103080000E944A040E944A0489ED95E00E94380497
:1030900080E58093D7051092D80581E00E948814BE
:1030A000882339F083E096E00E943414882331F0BD
:1030B0000CC080E00E9488148111F4CF61E971E0B6
:1030C00082EF94E00E949A16FFCF6DEA71E082EFE2
:1030D00094E00E949A1660ED77E080E090E00E9414
:1030E000970FE0912606F09127068FE090E09183FC
:1030F0008083F89486E292E0918B808B91AF80AFD1
:10310000789404EF11E08EE00E945B0F9093E1024F
:103110008093E00265E070E080E090E00E94970F0D
:103120000150110981F760E082E00E941F0F60E00A
:1031300083E00E941F0F61E088E00E941F0F61E0A2
:1031400088E00E94F00E60E088E00E94F00E61E0EE
:103150008AE00E941F0F61E08AE00E94F00E60E0AA
:103160008AE00E94F00E61E089E00E941F0F61E09A
:1031700089E00E94F00E60E089E00E94F00EC12C10
:10318000D12C8091250690E0C816D9065CF5E09018
:103190002606F0902706E00EF11EF701828193814A
:1031A00097FD08C061E00E941F0F60E0F701828177
:1031B0000E94F00EF7018481958197FD0DC061E0BA
:1031C0000E941F0FF701F48061E08F2D0E941F0FF6
:1031D00060E08F2D0E94F00EFFEFCF1ADF0A045C33
:1031E0001F4FCFCF0E94720FDC01CB018053984F4D
:1031F000AF4FBF4F8093280690932906A0932A06CD
:10320000B0932B0610922C06109224061092800088
:10321000109282008CE0809381008CE790E0909384
:1032200089008093880082E080936F00789468EE34
:1032300073E080E090E00E94970F6EEB71E082EF08
:1032400094E00E94AE1661E089E00E94F00E64E610
:1032500070E080E090E00E94970F60E089E00E94BB
:10326000F00E64E670E080E090E00E94970F61E06D
:1032700088E00E94F00E64E670E080E090E00E943A
:10328000970F60E088E00E94F00E64E670E080E056
:1032900090E00E94970F61E08AE00E94F00E64E6E1
:1032A00070E080E090E00E94970F60E08AE00E946A
:1032B000F00E64E670E080E090E00E94970F61E01D
:1032C00088E00E94F00E64E670E080E090E00E94EA
:1032D000970F60E088E00E94F00E64E670E080E006
:1032E00090E00E94970F61E089E00E94F00E64E692
:1032F00070E080E090E00E94970F60E089E00E941B
:10330000F00E64E670E080E090E00E94970F61E0CC
:1033100088E00E94F00E64E670E080E090E00E9499
:10332000970F60E088E00E94F00E64E670E080E0B5
:1033300090E00E94970F61E08AE00E94F00E64E640
:1033400070E080E090E00E94970F60E08AE00E94C9
:10335000F00E64E670E080E090E00E94970F61E07C
:1033600088E00E94F00E64E670E080E090E00E9449
:10337000970F60E088E00E94F00E64E670E080E065
:1033800090E00E94970F61E089E00E94F00E64E6F1
:1033900070E080E090E00E94970F60E089E00E947A
:1033A000F00E98EEC92E93E0D92EE12CF12C24EFEB
:1033B000422E55245394612C712C82E3282E81E0F7
:1033C000382EE0912606F0912706F894858515861B
:1033D0007894882309F49EC268EC70E080E090E065
:1033E0000E94970F63ED71E082EF94E00E94AE16A9
:1033F0000E94D10FA70196010E94AA1DBA01A9013E
:103400002AE082EF94E00E94001669E771E082EF03
:1034100094E00E94EB15E0912606F09127060681C4
:1034200017818EE00E945B0F9093E1028093E0028F
:103430001C821B823A8229821E82CE0101960E9442
:103440003414BE016F5F7F4FCE01CB960E94A5075B
:1034500019A218A23F8E2E8E1BA221968FAD219706
:10346000811118C06C961FAE1EAE6C97A096CCAEA4
:10347000DDAEEEAEFFAEA0978EE091E06A969FAF14
:103480008EAF6A97E3961FAE1EAEE397A5961FAE6A
:10349000A59729C027E14DE452E0BE01655C7F4F4E
:1034A000CE014E960E94BE118823E1F2CE01CB964A
:1034B0000E941E0349A95AA96BA97CA9CE014E9668
:1034C0000E948901BE01625E7F4FCE0101960E947B
:1034D000A5074DE452E0BE016F5F7F4FCE01885AD1
:1034E0009F4F0E94B6150F501109E396EEADFFAD48
:1034F000E397309709F4DAC08581882309F4D6C0B0
:103500006FED71E0CE01885A9F4F0E949A166FEDC1
:1035100071E082EF94E00E949A166EEE71E0CE01A7
:10352000885A9F4F0E94AE160E94D10FA7019601A4
:103530000E94AA1DBA01A9012AE0CE01885A9F4F14
:103540000E94001669E771E0CE01885A9F4F0E94E1
:10355000EB1566EF71E0CE01885A9F4F0E94AE16C0
:10356000B801CE01885A9F4F0E94721666EF71E033
:1035700082EF94E00E94AE16B80182EF94E00E94C0
:1035800072166CEF71E0CE01885A9F4F0E94AE1602
:103590006091E0027091E102CE01885A9F4F0E9433
:1035A00072166CEF71E082EF94E00E94AE166091AB
:1035B000E0027091E10282EF94E00E94721682E0D4
:1035C0000E94C70E5C019093DF028093DE0283E0CD
:1035D0000E94C70E9093DD028093DC02AA94AB2870
:1035E00099F461E072E082EF94E00E949A1661E043
:1035F00072E0CE01885A9F4F0E949A1664E670E0EE
:1036000080E090E00E94970F8091DC029091DD02B3
:10361000019799F466E172E082EF94E00E949A16B5
:1036200066E172E0CE01885A9F4F0E949A1664E6C6
:1036300070E080E090E00E94970F8091E00290910E
:10364000E102853F9140FCF064EF71E080E090E0A2
:103650000E94970F6DE272E082EF94E00E949A164A
:103660006DE272E0CE01885A9F4F0E949A1660E088
:1036700089E00E94F00E60E088E00E94F00E61E0B8
:103680008AE00E94F00EE3968EAD9FADE39700971F
:1036900099F00E941E03E3968EAD9FADE3970E94C2
:1036A000CB1EE3961FAE1EAEE39706C06FE372E03B
:1036B00082EF94E00E949A160C33110564F460E0E6
:1036C00089E00E94F00E61E088E00E94F00E60E068
:1036D0008AE00E94F00EC80184549109C49750F406
:1036E00061E089E00E94F00E60E088E00E94F00E48
:1036F00060E041C0053B11050CF440C060E089E08A
:103700000E94F00E64E670E080E090E00E94970F67
:1037100060E08AE00E94F00E64E670E080E090E0F5
:103720000E94970F61E088E00E94F00E64E670E06E
:1037300080E090E00E94970F60E088E00E94F00E29
:1037400064E670E080E090E00E94970F8091E002D4
:103750009091E102449794F464E670E080E090E098
:103760000E94970F60E089E00E94F00E60E088E020
:103770000E94F00E61E08AE00E94F00E68EC70E0BA
:1037800080E090E00E94970F40929D0550929E0528
:1037900060929F057092A0051092A1051092A2055B
:1037A0001092A3051092A40580919505909196051D
:1037B000A0919705B09198058093990590939A05EB
:1037C000A0939B05B0939C050E94D10F6093950533
:1037D0007093960580939705909398050E94D10F5A
:1037E0004B015C0169E572E08091D1059091D205B1
:1037F0000E94AE162AE041E050E060E070E0809167
:10380000D1059091D2050E94001660E672E0809189
:10381000D1059091D2050E94AE162AE0B501A4010F
:103820008091D1059091D2050E94001662E672E067
:103830008091D1059091D2050E94AE168091950598
:1038400090919605A0919705B0919805B501A401B6
:10385000481B590B6A0B7B0B2AE08091D105909194
:10386000D2050E94001662E672E08091D105909127
:10387000D2050E94AE164091950550919605609133
:103880009705709198058091990590919A05A0915E
:103890009B05B0919C05481B590B6A0B7B0B2AE0DA
:1038A0008091D1059091D2050E94001664E672E0E5
:1038B0008091D1059091D2050E94AE166091E002F0
:1038C0007091E1028091D1059091D2050E949016ED
:1038D00064E672E08091D1059091D2050E94AE1607
:1038E000B8018091D1059091D2050E94901666E6AC
:1038F00072E08091D1059091D2050E949A160E94A3
:10390000D10F6093950570939605809397059093DA
:10391000980557CD0E94A70D50CDCF93DF931092FD
:10392000F5041092F40488EE93E0A0E0B0E08093F8
:10393000F6049093F704A093F804B093F90420E2FE
:1039400031E03093F3042093F20425EC30E030931F
:10395000FF042093FE0424EC30E030930105209313
:10396000000520EC30E0309303052093020521ECA4
:1039700030E0309305052093040522EC30E03093CD
:1039800007052093060526EC30E0309309052093C7
:10399000080510920B0510920C0510920D0510925F
:1039A0000E051092950510929605109297051092AB
:1039B00098051092990510929A0510929B05109205
:1039C0009C0510929D0510929E0510929F051092E5
:1039D000A0051092A1051092A2051092A3051092C5
:1039E000A40520E52093D7051092D8051092DE0596
:1039F0001092DF051092E2051092E40542E050E0DB
:103A000060E070E04093E5055093E6056093E705BC
:103A10007093E8051092FC051092060610920506B8
:103A200022E331E030930406209303061092080647
:103A30001092340610923306809335069093360622
:103A4000A0933706B09338068CE591E09093320648
:103A5000809331060E94D10FC9ECD6E0E5E6F6E08E
:103A60004DE356E0199211921192DA016D937D9314
:103A70008D939D93AD019F01225B3F4FD9011D9214
:103A80001C92B6E0E937FB0769F71092E80610923E
:103A9000E70610922E0610922D0682E090E0909399
:103AA000300680932F0684E296E09093230680935D
:103AB000220681E0809325068CE390E00E94331E6D
:103AC000FC018EE090E0918380838FEF9FEF9383E2
:103AD00082839583848382E090E0A0E0B0E0808FD1
:103AE000918FA28FB38FDF015C96CF01C0961D929C
:103AF0001D92A817B907D9F71586178216828EEE80
:103B000092E093878287148610AA11AA12AA13AA98
:103B1000148A158A168A178A80E092E095AB84ABE6
:103B200097AB86AB86E292E0918B808B91AF80AFB2
:103B300084E690E0938B828B81E082AF13AE178690
:103B40001686F0932706E093260686819781DF91FB
:103B5000CF910895A1E21A2EAA1BBB1BFD010DC037
:103B6000AA1FBB1FEE1FFF1FA217B307E407F5072D
:103B700020F0A21BB30BE40BF50B661F771F881F09
:103B8000991F1A9469F760957095809590959B019F
:103B9000AC01BD01CF0108950E94D71DA59F900DD6
:103BA000B49F900DA49F800D911D11240895A29F94
:103BB000B001B39FC001A39F700D811D1124911D01
:103BC000B29F700D811D1124911D0895AA1BBB1B6E
:103BD00051E107C0AA1FBB1FA617B70710F0A61B0D
:103BE000B70B881F991F5A95A9F780959095BC012E
:103BF000CD01089597FB072E16F4009407D077FDAA
:103C000009D00E94E61D07FC05D03EF490958195F1
:103C10009F4F0895709561957F4F0895052E97FBEE
:103C20001EF400940E94251E57FD07D00E94AA1D75
:103C300007FC03D04EF40C94251E5095409530950A
:103C400021953F4F4F4F5F4F089590958095709508
:103C500061957F4F8F4F9F4F0895EE0FFF1F059087
:103C6000F491E02D09940F931F93CF93DF9382304B
:103C7000910510F482E090E0E091EB06F091EC0603
:103C800020E030E0A0E0B0E0309719F140815181B0
:103C90000281138148175907C8F08417950769F402
:103CA000109731F012960C93129713961C9327C01D
:103CB0000093EB061093EC0622C02115310519F094
:103CC0004217530718F49A01BD01EF01DF01F80113
:103CD000DBCF21153105F9F0281B390B24303105D4
:103CE00080F48A819B816115710521F0FB0193832A
:103CF000828304C09093EC068093EB06FE0132961B
:103D000044C0FE01E20FF31F8193919322503109C9
:103D1000398328833AC02091E9063091EA06232BA3
:103D200041F420910601309107013093EA06209377
:103D3000E90620910401309105012115310541F476
:103D40002DB73EB74091080150910901241B350B56
:103D5000E091E906F091EA06E217F307A0F42E1BC2
:103D60003F0B2817390778F0AC014E5F5F4F2417DF
:103D7000350748F04E0F5F1F5093EA064093E9065F
:103D80008193919302C0E0E0F0E0CF01DF91CF9109
:103D90001F910F910895CF93DF93009709F481C08D
:103DA000FC01329713821282A091EB06B091EC06CF
:103DB000109781F420813181820F931F2091E906B1
:103DC0003091EA062817390751F5F093EA06E09397
:103DD000E90667C0ED0120E030E0CE17DF0740F4D0
:103DE0004A815B819E0141155105F1F0EA01F5CF51
:103DF000D383C28340815181840F951FC817D9078F
:103E000059F488819981840F951F0296918380834C
:103E10008A819B81938382832115310529F4F09354
:103E2000EC06E093EB063DC0E901FB83EA83499190
:103E30005991C40FD51FEC17FD0761F48081918162
:103E4000840F951F0296E90199838883828193816B
:103E50009B838A83E0E0F0E012968D919C9113970A
:103E6000009719F0FD01DC01F7CF8D919C9111971E
:103E70009D012E5F3F4F820F931F2091E9063091E5
:103E8000EA062817390769F4309729F41092EC06EE
:103E90001092EB0602C013821282B093EA06A0933E
:103EA000E906DF91CF91089581E090E0F8940C94B9
:103EB000751FFB01DC0104C08D910190801921F474
:103EC00041505040C8F7881B990B0895FB01DC0155
:103ED0004150504048F001900D920020C9F701C0B8
:0E3EE0001D9241505040E0F70895F894FFCF36
:103EEE00FFFFFFFF0000ED06800000000000C6008F
:103EFE008907B50080019400DF08E9080000000082
:103F0E00380D7913CF0C850D000DDE0CF20C000070
:103F1E0000005E0E7913000E380100000000DA0D6D
:103F2E00791339013801DA0DDA0DDA0D00000000CF
:103F3E00DA0D7913390138010000000027011C0148
:103F4E0039010E01150112010F01564D4450565FF5
:103F5E00317C315F564D4450560D0A00496E6974DE
:103F6E0069616C697A696E6720534420636172647B
:103F7E000043617264206661696C65642C206F7207
:103F8E00206E6F742070726573656E74004361727B
:103F9E006420696E697469616C697A656400496E42
:103FAE00697469616C697A696E672053656E736FA7
:103FBE0072730054696D6572202873293A2000547B
:103FCE00657374205375626A6563743A2000546990
:103FDE006D65723A200042504D3A20004753523AD6
:103FEE0000416E67727920284D616E75616C2049B3
:103FFE006E7075742900416E78696F757320284D47
:10400E00616E75616C20496E70757429004E6F205B
:10401E0048756D616E2044657465637465640065F2
:10402E0072726F72206F70656E696E672064617454
:10403E00616C6F672E74787400564D4450455F0066
:0E404E003A323A007C005F564D445045000067
:00000001FF
